:020000040800F2
:10000000502002207D020008ED5E000879390008CA
:10001000E95E0008B11A00086FC80008000000007F
:10002000000000000000000000000000C501000802
:10003000DD2C00080000000019020008957000087F
:10004000A1020008A1020008A1020008A102000804
:10005000A1020008A1020008A1020008A1020008F4
:10006000A1020008A1020008A1020008A1020008E4
:10007000A1020008A1020008A1020008A1020008D4
:10008000A1020008A1020008A1020008A1020008C4
:10009000C51B0008A1020008A1020008DF2C00080F
:1000A000A1020008A1020008A1020008A1020008A4
:1000B000A102000819710008A1020008A1020008AD
:1000C000A1020008A1020008A1020008A102000884
:1000D000A102000871C20008A102000859C300086B
:1000E000A1020008A1020008A1020008A102000864
:1000F000A1020008A1020008A1020008A102000854
:10010000A1020008A102000825720008A10200084F
:10011000A1020008A1020008A1020008A102000833
:10012000A1020008A1020008A1020008A102000823
:10013000A1020008A1020008A1020008A102000813
:100140009D1D0008A1020008A1020008A1020008EC
:1001500051280008A1020008A102000809C50008F2
:10016000A1020008A1020008A1020008A1020008E3
:10017000A1020008A1020008A1020008000000007E
:10018000A1020008A1020008A1020008457A0008A7
:10019000A1020008A1020008A1020008A1020008B3
:1001A0000000000000000000A1020008DFF810D0ED
:1001B00000F02CFC0048004789020108AFF30080E2
:1001C000502002202A4B19680868B0E8F04F80F3ED
:1001D0000988BFF36F8F4FF0000080F311887047DC
:1001E0000000000006480068006880F3088862B6D6
:1001F00061B6BFF34F8FBFF36F8F00DF00BF00BF4B
:1002000008ED00E0DFF80C00016841F470010160C6
:10021000704700BF88ED00E0EFF30980BFF36F8FF8
:10022000134B1A681EF0100F08BF20ED108A20E94A
:10023000F04F106008B44FF0500080F31188BFF306
:100240004F8FBFF36F8F11F0AFFE4FF0000080F3C0
:10025000118808BC19680868B0E8F04F1EF0100F4C
:1002600008BFB0EC108A80F30988BFF36F8F704726
:1002700030000020EFF30580704700000948016856
:1002800041F4700101600848804708480047FEE7D4
:10029000FEE7FEE7FEE7FEE7FEE7FEE7FEE7FEE736
:1002A000FEE7000088ED00E0A5700008AD01000841
:1002B0009FED1A1AF5EE000A40EE010ABDEEE00AC3
:1002C000F5EEC00A10EE100AF1EE10FA38BF401E2B
:1002D00000EE100A1349F7EE001AB8EEC00A30EE2D
:1002E000C00ADFED0F0A20EE200AFCEEC00A10EE75
:1002F000900AC0F3080000EE900A01EB8000F8EECF
:10030000600A90ED011A70EE600A90ED000A71EE3D
:10031000E01A21EE800A00EE810A704783F9223E3E
:100320000000004424340108DFED190AB5EEC00ACC
:1003300060EE200ABDEEE01A11EE100AF1EE10FA9E
:1003400038BF401E00EE100A1349F7EE001AB8EE4F
:10035000C00A30EEC00ADFED0F0A60EE200ABCEEE4
:10036000E00A10EE100AC0F3080000EE100A01EBDC
:100370008000B8EE400A90ED011A70EEC00A90EDD0
:10038000000A71EEE01A21EE800A00EE810A704741
:1003900083F9223E000000442434010840EA0103AE
:1003A0009B0703D009E008C9121F08C0042AFAD22B
:1003B00003E011F8013B00F8013B521EF9D27047EF
:1003C000D2B201E000F8012B491EFBD27047002297
:1003D000F6E710B513460A4604461946FFF7F0FF44
:1003E000204610BD421C10F8011B0029FBD1801AC9
:1003F00070472DE9FE4F804681EA0300C00F0C468E
:10040000009021F0004123F00045B8EB0200A94123
:1004100005D24046214690461C460B46024623F034
:100420000040104347D0270DC7F30A00C3F30A5119
:100430000290401A019040286BDAC3F3130040F495
:10044000801B0098924620B10023D2EB030A63EB95
:100450000B0B01985946C0F14002504600F099F943
:1004600006460D4650465946019A00F0A1F910EB98
:1004700008006141002487EA115284EAE7731A43B5
:1004800040D0009A62B3019A012A4FEA075215DC64
:10049000001B61EB02014FF0004202EA0752CDE976
:1004A0000042001C41F5801132462B4600F0D8F97D
:1004B00003B0BDE8F08F40462146F9E7001B61EB31
:1004C0000201001C41F5801300185B412018A2F5C1
:1004D000001747EB030140EAD570B6196D4111E0F2
:1004E0006D084FEA360645EAC0754FEA0752001B11
:1004F00061EB0201001C41F5801149084FEA300010
:100500000019514132462B4603B0BDE8F04F00F0D0
:1005100098B90098012240000023D0EB020263EB5F
:10052000E073009821464FEAE074B8EB000061EBFD
:100530000401E9E783F000435BE781F0004158E7FD
:100540002DE9FE4F81EA030404F0004421F000414C
:1005500000944FF0000B23F0004350EA01045ED0FA
:1005600052EA03045BD0C3F30A54C1F30A552C4486
:10057000A4F2F3340194A0FB0254C1F3130141F43B
:100580008011C3F3130343F4801301FB024400FB07
:10059000034E840A970A44EA815447EA8357A4FB2E
:1005A000076802958D0A05FB07854FEA932C04FB2B
:1005B0000C542705029D4FEA065847EA1637B5EB5B
:1005C00008056EEB070C870E920E47EA811742EA88
:1005D0008312A7FB0201B6EB0B0164EB00042B0DA9
:1005E00043EA0C335E1844EB1C50DA465146E7FBF5
:1005F0000201C5F313044FEA0B3343EA14534FEAE5
:100600000432019C43EA0603A4F10C040294009C0A
:10061000CDE900B400F024F903B0BDE8F08F00206C
:100620000146F9E70EB5C10F80EAE0700844CA0739
:10063000002140F233438DE80E000A460B4600F0DD
:100640000FF903B000BD00F0004230F000400AD0C6
:10065000C10D01F56071C0F3160042EA0151C208F4
:1006600040071143704700200146704730B5041E13
:1006700071F1000404DB4FF00044404264EB0101DF
:10068000141E73F1000405DB1C464FF00043524278
:1006900063EB04038B4208BF824230BD30B5041EB9
:1006A00071F1000404DB4FF00044404264EB0101AF
:1006B000141E73F1000405DB1C464FF00043524248
:1006C00063EB0403994208BF904230BD01F0004340
:1006D00030B421F0004150EA010206D00A0DA2F523
:1006E0006072C1F31301002A02DC30BC00207047A5
:1006F000440F44EAC104C100E01830BC00EBC25012
:1007000000F068B830B50B460146002020220124D5
:1007100009E021FA02F59D4205D303FA02F5491BCF
:1007200004FA02F52844151EA2F10102F1DC30BDE5
:100730002DE9F05F0546002092469B468846064616
:10074000814640241BE0284641464746224600F0A9
:100750006FF953465A46C01A914110D311461846B4
:10076000224600F016F82D1A67EB01084F46224684
:100770000120002100F00DF817EB00094E41201E6A
:10078000A4F10104DFDC484631462A464346BDE871
:10079000F09F202A04DB203A00FA02F10020704783
:1007A0009140C2F1200320FA03F3194390407047AF
:1007B000202A06DBCB17203A41FA02F043EAE07325
:1007C00006E041FA02F3D040C2F120029140084312
:1007D000194670470029A8BF7047401C490008BF50
:1007E00020F00100704710B4B0FA80FC00FA0CF061
:1007F00050EA010404BF10BC704749B1CCF1200499
:1008000021FA04F411FA0CF118BF01212143084325
:10081000A3EB0C01CB1D4FEA00614FEA102042BF51
:10082000002010BC704700EBC35010440029A4BF47
:1008300010BC7047401C490008BF20F0010010BCEC
:10084000704710B5141E73F1000408DA401C41F122
:10085000000192185B411A4301D120F0010010BD44
:100860002DE9F04D92469B4611B1B1FA81F202E0BA
:10087000B0FA80F220329046FFF78BFF04460F4615
:1008800040EA0A0041EA0B0153465A46084313D096
:10089000114653EA010019D0C8F14002504600F059
:1008A000C7F805460E46504659464246FFF771FFC7
:1008B000084305D0012004E020463946BDE8F08D0C
:1008C0000020054346EAE0762C4337430A98630547
:1008D000E40AA0EB08000022FD0A44EA47540A306B
:1008E00002D500200146E9E7010510196941DDE95B
:1008F000084500196941BDE8F04DA2E72DE9F04D2A
:1009000081EA030404F0004B21F0004514464FF047
:10091000000A23F0004150EA050220D054EA010207
:100920001DD0C5F30A570246C5F31303C1F31300E4
:10093000C1F30A5640F4801543F48013A7EB060870
:10094000101BD64608F2FD3873EB050002D308F100
:10095000010801E092185B41B8F1000F03DA0020B2
:100960000146BDE8F08D00204FF480110646844614
:100970000EE0171B73EB050705D3121B63EB050392
:1009800006434CEA010C49084FEA300092185B41DB
:1009900050EA0107EDD152EA030012D082EA0400C6
:1009A00083EA0501084305D0101BAB4106D20122A2
:1009B000002306E000224FF0004302E06FF0010246
:1009C00053101AEB06004CEB085110EB0A0041EBF8
:1009D0000B01BDE8F04DFFF734BFC1F30A52C1F37C
:1009E000130140F2FF3341F480119A4202DA0020F1
:1009F0000146704740F233439A42A2F2334202DC8E
:100A0000524200F015B8FFF7C4BE0000064C074D77
:100A100006E0E06840F0010394E8070098471034CE
:100A2000AC42F6D3FFF7C6FB283C0108483C01085E
:100A3000202A04DB203A21FA02F00021704721FA33
:100A400002F3D040C2F1200291400843194670479A
:100A500070B58C1810F8015B15F0070301D110F880
:100A6000013B2A1106D110F8012B03E010F8016BAD
:100A700001F8016B5B1EF9D12B0705D40023521E30
:100A80000DD401F8013BFAE710F8013BCB1A921C98
:100A900003E013F8015B01F8015B521EF9D5A14296
:100AA000D8D3002070BDCA430260704721B182686C
:100AB00042F00102826003E0826822F0010282605B
:100AC000704700000021084A1168084A1140D0E927
:100AD00000231A4383681A43C3681A431143044A24
:100AE000C2F804137047000004230140E030FCFF0B
:100AF000002001400146C86C80B2704702460020C9
:100B000013680B400BB1012000E00020704700008B
:100B100030B50246002000235068104C20400D796B
:100B20000C6844EA05242043506090680C4C204037
:100B3000D1E903542C438D682C434D7944EA450494
:100B400020439060D06A20F470000C7D641EE4B2F3
:100B5000234340EA0350D06230BD0000FFFEFFFC9B
:100B6000FDF7FFC0F0B504460D4600200021092D19
:100B700011DDE068A5F10A0606EB4607072606FA2E
:100B800007F18843A5F10A0606EB460603FA06F1CB
:100B90000843E0600CE0206905EB4507072606FAEC
:100BA00007F1884305EB450603FA06F10843206187
:100BB000072A0FDA606B561E06EB86071F2606FA19
:100BC00007F18843561E06EB860605FA06F1084330
:100BD000606322E00D2A0FDA206BD61F06EB860732
:100BE0001F2606FA07F18843D61F06EB860605FA8C
:100BF00006F10843206310E0E06AA2F10D0606EB5F
:100C000086071F2606FA07F18843A2F10D0606EBB8
:100C1000860605FA06F10843E062F0BD816841F0FE
:100C2000804181607047000038B10849096841F48B
:100C30000001074AC2F8041306E00449096821F4D8
:100C40000001034AC2F80413704700000423014066
:100C50000020014010B52DED028BB0EE408AB0EEC1
:100C6000480A0BF0ABFEBDEC028B10BD10B52DEDAC
:100C7000028BB0EE408AF0EE608AF0EE680AB0EEC9
:100C8000480A0BF031FFBDEC028B10BD10B52DED05
:100C9000028BB0EE408AB0EE480AFFF709FBBDECCC
:100CA000028B10BDF0EE400AF5EEC00AF1EE10FA2C
:100CB00002DDB0EE600A7047B1EE600AFBE70000AB
:100CC00018B19FED020A80ED000A70470000000095
:100CD00018B19FED020A80ED000A7047DF8FB44122
:100CE00070B52DED0C8B84B006460C4615469FED75
:100CF000990AF0EE408A9FED970AB0EE409A9FED78
:100D0000950AF0EE40BA9FED930AF0EE409A9FEDFF
:100D1000910AB0EE40AA0EB104B11DB904B0BDEC09
:100D20000C8B70BD8C48FFF7CBFF8C48FFF7D0FFD2
:100D30008A48D0ED000A9FED8A1A60EE810AB0EE73
:100D4000600A00F039F9F0EE408A28EEA80AF0EEC9
:100D5000408A8248D0ED000AB0EE001A60EE810AA7
:100D60009FED7F1A60EE810AB0EE600A00F024F970
:100D7000B0EE409A29EE090AB0EE409ADFED790A0A
:100D8000B7EE000A00EEA80ADFED770A00EEC90A06
:100D9000DFED760A20EE200A754880ED000A6E48E5
:100DA00090ED000ADFED730A80EE201AB7EE000A1C
:100DB00031EE000A20EE000A6D48D0ED000A80EE08
:100DC000801A6D4880ED001A94ED000AB5EEC00A55
:100DD000F1EE10FA0DD194ED010AB5EEC00AF1EE74
:100DE00010FA06D194ED020AB5EEC00AF1EE10FA3F
:100DF00046D09FED580AB0EE408A00200190029044
:100E00000390D4ED000A60EEA00A94ED011AD4ED2F
:100E1000011A41EE210A94ED021AD4ED021A41EEB4
:100E2000210AB0EE600A00F0A9F8B0EE408A94ED15
:100E3000000A20EE080A8DED010A94ED010A20EE69
:100E4000080A8DED020A94ED020A20EE080A8DEDE3
:100E5000030ADDED010AF1EE600AB0EE600AFFF769
:100E6000F9FEF0EE409A9DED031AF0EE410A9DED79
:100E7000021AB0EE410AFFF7F9FEB0EE40AA07E011
:100E80009FED340AF0EE409A9FED320AB0EE40AA90
:100E900095ED000AB5EEC00AF1EE10FA0DD195ED10
:100EA000010AB5EEC00AF1EE10FA06D195ED020A7C
:100EB000B5EEC00AF1EE10FA3CD0B0EE690A00F0CF
:100EC0007BF8B0EE408AB0EE690AFFF7DFFEB0EEC5
:100ED00040DAB0EE4A0A00F06FF8F0EE40AAB0EE49
:100EE0004A0AFFF7D3FEB0EE40BA28EE2A0AD5ED43
:100EF000010A20EE200AD5ED000A0DEE200A68EE68
:100F00000B0A95ED021A00EE810AB0EE40CA95ED8B
:100F1000010A20EE0B0AD5ED020A0AEEE00AF0EE15
:100F200040CAF0EE6C0AB0EE4C0AFFF79FFEF0EEFE
:100F300040BA03E09FED070AF0EE40BAB0EE4A1A5D
:100F4000F0EE690AB0EE6B0A30460CF069FD00BFA6
:100F5000E4E6000000000000E8030020EC030020AD
:100F600035FA8E3CC1BFAD3B9DF8C5362F7C1C4188
:100F7000F0030020506CC24AF4030020F0EE400A57
:100F8000F6EE001A60EEA11AB0EE611AB0EE600A39
:100F900010EE100A0749A1EB600000EE100A21EEE6
:100FA000002AF7EE081A42EE401A61EE801AB0EEFF
:100FB000610A7047DF59375F10B52DED028BB0EE37
:100FC000408AB0EE480AFFF7AFF9BDEC028B10BDC6
:100FD0002DE9F0412DED028B9AB00546B0EE408A26
:100FE0000E461746984600201790189019901490B6
:100FF000159016904DB146B13FB1B8F1000F04D035
:10100000B5EEC08AF1EE10FA05D100201AB0BDECA1
:10101000028BBDE8F08196ED000A8DED170A96ED82
:10102000010A8DED180A96ED020A8DED190A97ED69
:10103000000A8DED140A97ED010A8DED150A97ED62
:10104000020A8DED160A17AA14A928460CF03AFBDD
:10105000402104A8FFF7BBF9002000900190029006
:101060000390002417A904A810F068FB00BF30E02B
:1010700004A800EB041090ED000AD5ED000A20EE64
:10108000200A04A800EB0410D0ED010A95ED011A26
:1010900000EE810A04A800EB0410D0ED020A95EDE1
:1010A000021A00EE810A04A800EB0410D0ED030A36
:1010B00095ED031A00EE810A20EE080AF0EE000A10
:1010C00080EE201A684600EB840080ED001A601C58
:1010D000C4B2042CCCDB002410E005EB840090EDBE
:1010E000000A684600EB8400D0ED000A30EE200ACA
:1010F00005EB840080ED000A601CC4B2042CECDB1C
:10110000284610F075F9012080E700002DE9F04134
:1011100005460E460027AA200D4908704870EF20AA
:1011200088700220C870084605714671002405E0E9
:101130000748005D3844C7B2601CC4B2062CF7DB18
:1011400003488771072101F01FFDBDE8F081000011
:10115000800E0220F0B52DED0A8B81B00646B0EE70
:10116000408AF0EE608AB0EE419AF0EE619AB0EEFD
:1011700042AAF0EE62AAB0EE43BAF0EE63BAB0EE65
:1011800044CA002400270025AA222146641C78486E
:1011900042542146641C425406F10F00C2B221465B
:1011A000641C7348425400222146641C4254BDEE24
:1011B000C80A10EE100A00B200909DF801202146E6
:1011C000641C6B4842549DF800202146641C425424
:1011D0009FED680A28EE800ABDEEC00A10EE100AE4
:1011E00000B200909DF801202146641C60484254E2
:1011F0009DF800202046611CCCB25D490A549FED49
:101200005D0A29EE000ABDEEC00A10EE100A00B217
:1012100000909DF801202046611CCCB254490A542C
:101220009DF800202046611CCCB251490A54BDEE05
:10123000E90A10EE100A00B200909DF80120204645
:10124000611CCCB24A490A549DF800202046611C1A
:10125000CCB247490A549FED470A2AEE000ABDEE78
:10126000C00A10EE100A00B200909DF8012020463E
:10127000611CCCB23E490A549DF800202046611CF6
:10128000CCB23B490A549FED3B0A2AEE800ABDEEE0
:10129000C00A10EE100A00B200909DF8012020460E
:1012A000611CCCB232490A549DF800202046611CD2
:1012B000CCB22F490A54BDEECB0A10EE100A00B290
:1012C00000909DF801202046611CCCB228490A54A8
:1012D0009DF800202046611CCCB225490A549FEDA0
:1012E000250A2BEE800ABDEEC00A10EE100A00B2ED
:1012F00000909DF801202046611CCCB21C490A5484
:101300009DF800202046611CCCB219490A549FED7B
:10131000190A2CEE000ABDEEC00A10EE100A00B247
:1013200000909DF801202046611CCCB210490A545F
:101330009DF800202046611CCCB20D490A54201FA4
:10134000C87000BF05E00A48405D3844C7B2681C59
:10135000C5B2A542F7DB2046611CCCB204490F544C
:101360002146034801F010FC01B0BDEC0A8BF0BD32
:10137000800E02200000C8421CB510F07BFA0B481A
:10138000012100238022CDE9001009A10D4811F0B0
:1013900011FA0D48032100238022CDE9001004A199
:1013A0000A4811F007FA10F08FFA1CBDA0010020C6
:1013B000496E666F5F5570646174655F5461736BED
:1013C00000000000D53F0008A8010020A13F000850
:1013D0001CB505480B2100238022CDE9001003A194
:1013E000054811F0E7F91CBD340200205374617206
:1013F000745F5461736B0000216F000870B505467F
:101400000C4600260DB1022C00D870BDA11E064866
:101410000288284602F084FA0646A01E2E54310A9D
:10142000601E295400BFF0E79A00002070B5054601
:101430000C4600260DB1022C00D870BD611EFF22A3
:10144000284602F087FA0646601E2E5400BFF4E7D5
:1014500001461C48814201D2002070471A4881424F
:1014600001D20820F9E71948814201D21020F4E79F
:101470001748814201D21820EFE71648814201D275
:101480002020EAE71448814201D22820E5E71348EA
:10149000814201D23020E0E71148814201D2382058
:1014A000DBE71048814201D24020D6E70E48814256
:1014B00001D24820D1E70D48814201D25020CCE72B
:1014C0005820CAE7004000080080000800C000085B
:1014D00000000108000002080000040800000608DF
:1014E0000000080800000A0800000C0800000E08B0
:1014F0002DE9F04107460D461646002405E0384622
:1015000000F007F828557F1C641CB442F7D3BDE8EF
:10151000F0810146087870472DE9FC5F04460D46CE
:1015200090464FF009090120019000264FF0000A73
:1015300000274FF0000B00200090B4F1006F01D2A3
:10154000BDE8FC9F01F0E8FC002001F035FC2646D8
:1015500004EB080A3046FFF77BFF83465046FFF74F
:1015600077FF00901648864211D25F460BE00221B9
:10157000384601F033FC8146B9F1090F02D0002052
:10158000019003E0083700988742F0D900BFB9F115
:10159000090F0ED10AE02978204601F097FC0928AE
:1015A00002D00020019003E0641C6D1C5445F2D36E
:1015B00000BF012001F000FC01F07EFC0198BFE7B4
:1015C0000000FF1F2DE9F0412DED048B04460E466F
:1015D0000025002704E0E05D2844C5B2781CC7B2AE
:1015E000701EB842F7DCA01910F8010CA84203D015
:1015F000BDEC048BBDE8F0812078AA2802D1607888
:10160000AF2800D0F4E7A078012805D1207905287B
:1016100002D10120FE490870A078022809D1207962
:10162000012805D1FB490870FB490870FB49087087
:1016300000BFA07810287DD12079000200B2617926
:10164000084300EE100AB8EEC00A10EE100AF44982
:101650000860A179090209B2E27941EA0200FEF7C5
:10166000E1FF41EC190B9FEDEF0B53EC102BFEF754
:1016700067FF41EC180BFFF729F8E9494860217A28
:10168000090209B2627A41EA0200FEF7CBFF41EC9F
:10169000190B9FEDE40B53EC102BFEF751FF41ECBF
:1016A000180BFFF713F8DE498860A07A000200B239
:1016B000E17A084300EE100AB8EEC00A10EE100AF4
:1016C000D749C860217B090209B2627B41EA020066
:1016D000FEF7A8FF41EC190B9FEDD20B53EC102B3A
:1016E000FEF72EFF41EC180BFEF7F0FFCC49086126
:1016F000A17B090209B2E27B41EA0200FEF792FFF8
:1017000041EC190B9FEDC70B53EC102BFEF718FFA4
:1017100041EC180BFEF7DAFFC1494861207C00025A
:1017200000B2617C084300EE100AB8EEC00A10EE69
:10173000100A00E038E0BA498861A17C090209B2C8
:10174000E27C41EA0200FEF76DFF41EC190B9FEDD0
:10175000B50B53EC102BFEF7F3FE41EC180BFEF724
:10176000B5FFAF49C861217D090209B2627D41EA36
:101770000200FEF757FF41EC190B9FEDAA0B53EC4B
:10178000102BFEF7DDFE41EC180BFEF79FFFA4497E
:101790000862A648007838B90120A4490870A078EA
:1017A000A3490870A3480570A07811287ED120793C
:1017B000000200B26179084300EE100AB8EEC00AD8
:1017C00010EE100A96494862A179090209B2E2793D
:1017D00041EA0200FEF726FF41EC190B9FED910B49
:1017E00053EC102BFEF7ACFE41EC180BFEF76EFF2E
:1017F0008B498862217A090209B2627A41EA0200C1
:10180000FEF710FF41EC190B9FED860B53EC102BEC
:10181000FEF796FE41EC180BFEF758FF8049C862B0
:10182000A07A000200B2E17A084300EE100AB8EE96
:10183000C00A10EE100A7A490863217B090209B236
:10184000627B41EA0200FEF7EDFE41EC190B9FEDD1
:10185000750B53EC102BFEF773FE41EC180BFEF7E3
:1018600035FF6F494863A17B090209B2E27B41EA77
:101870000200FEF7D7FE41EC190B9FED6A0B53EC0B
:10188000102BFEF75DFE41EC180BFEF71FFF6449BD
:101890008863207C000200B2617C084300EE100ADD
:1018A000B8EEC00A10EE100A5D4900E037E0C863E8
:1018B000A17C090209B2E27C41EA0200FEF7B2FE15
:1018C00041EC190B9FED570B53EC102BFEF738FE34
:1018D00041EC180BFEF7FAFE51490864217D09021C
:1018E00009B2627D41EA0200FEF79CFE41EC190B51
:1018F0009FED4C0B53EC102BFEF722FE41EC180B26
:10190000FEF7E4FE464948644848007838B90120AB
:1019100046490870A0784649087046480570A07886
:10192000122873D12079000200B26179084300EED9
:10193000100AB8EEC00A10EE100A39498864A1797D
:10194000090209B2E27941EA0200FEF76BFE41ECBE
:10195000190B9FED340B53EC102BFEF7F1FD41EC0E
:10196000180BFEF7B3FE2E49C864217A090209B2AA
:10197000627A41EA0200FEF755FE41EC190B9FED39
:10198000290B53EC102BFEF7DBFD41EC180BFEF797
:101990009DFE23490865A07A000200B2E17A08435F
:1019A00000EE100AB8EEC00A10EE100A1C49486595
:1019B000217B090209B2627B41EA0200FEF732FE96
:1019C00041EC190B9FED170B53EC102BFEF7B8FDF4
:1019D00041EC180BFEF77AFE11498865A17B0902DC
:1019E00009B2E27B41EA0200FEF71CFE41EC190B52
:1019F0009FED0C0B53EC102BFEF7A2FD41EC180BE6
:101A0000FEF764FE0649C865084815E01EE00000C0
:101A1000AA020020900100209101002092010020E4
:101A2000AB0200207B14AE47E17A843F9501002091
:101A30009301002094010020007838B90120194951
:101A40000870A0781849087018480570A078132805
:101A50000AD11448007838B9012012490870A078DA
:101A60001149087011480570A07814280AD10D4852
:101A7000007838B901200B490870A0780A4908702D
:101A80000A480570A07815280AD10648007838B9A8
:101A9000012004490870A0780349087003480570C4
:101AA00000BFA5E5950100209301002094010020CE
:101AB00000BFFEE72DE9F04104460D4616461F46DD
:101AC00040F2FF100E49086000200872487208209A
:101AD0008872200AC87208460473290A4173857304
:101AE000310AC1730674390A4174877400230122D4
:101AF00001460448006810F0AFFCBDE8F08100002A
:101B0000940C0220D8030020F0B585B004460D46A1
:101B100016461F464FF40070009000208DF8080014
:101B20008DF8090008208DF80A00200A8DF80B00B6
:101B3000E1B28DF80C10290A8DF80D10E9B28DF87C
:101B40000E10310A8DF80F10F1B28DF81010390A0D
:101B50008DF81110F9B28DF8121000230122694698
:101B60000248006810F078FC05B0F0BDD8030020F2
:101B70002DE9F04104460D4616461F4640F2FF206F
:101B80000E49086000200872487208208872200AF6
:101B9000C87208460473290A41738573310AC173F8
:101BA0000674390A417487740023012201460448EF
:101BB000006810F051FCBDE8F0810000940C022098
:101BC000D803002010B50221084800F041FB58B1AD
:101BD0000221064800F064FA054A0021034800F09B
:101BE0005AFC034800F062FD10BD00000064004094
:101BF000A80C022010B586B0044603E001A90748EE
:101C000000F0C1FC00231A4601A90548006810F045
:101C1000F5FA0028F2D106B010BD000000640040C3
:101C2000D80300202DE9F0418AB004460D4616463F
:101C30001F46DDF840800121082004F02DFB012122
:101C4000480604F039FB0121480604F045FB002159
:101C50004FF0007004F040FB0320089002208DF844
:101C6000240000208DF8260003208DF82500012097
:101C70008DF8270008A92D4801F0DEFD092200217A
:101C80002A4801F021FE09220121284801F01CFE0A
:101C900000208DF81A0001208DF81B0000208DF81F
:101CA0001C008DF81D008DF81E008DF81F008DF8AA
:101CB00016808DF817408DF818608DF81950ADF822
:101CC000147005A91A4800F05CFB00208DF80E0086
:101CD0008DF80F0001208DF810000020ADF80400F1
:101CE000ADF80600ADF80800ADF80A00ADF80C003C
:101CF00001208DF8110001A800F026FA012202212E
:101D00000B4800F035FB14208DF8000004208DF8FE
:101D1000010000208DF8020001208DF803006846C4
:101D200004F0E6F800200AB0BDE8F081000C0240A3
:101D300000640040F0B585B004460D4616461F46C7
:101D40004FF40070009000208DF808008DF8090015
:101D500008208DF80A00200A8DF80B00E1B28DF8FA
:101D60000C10290A8DF80D10E9B28DF80E10310A09
:101D70008DF80F10F1B28DF81010390A8DF811108E
:101D8000F9B28DF81210002301226946024800685A
:101D900010F062FB05B0F0BDDC03002010B502219D
:101DA000084800F055FA58B10221064800F078F9C9
:101DB000054A0021034800F06EFB034800F01EF8BE
:101DC00010BD000000680040BC0C022010B586B0B9
:101DD000044603E001A9074800F0D5FB00231A469A
:101DE00001A90548006810F009FA0028F2D106B0F0
:101DF00010BD000000680040DC0300200168A1F273
:101E0000012131B101291FD0022938D003296CD119
:101E100050E037490988364A1181017BC27A41EA8C
:101E20000221334A1180827B417B42EA012109B2BF
:101E30002F4A5180027CC17B42EA012109B22C4A1F
:101E40009180417C917151E02A490988294A118188
:101E5000017BC27A41EA0221264A1180827B417BC2
:101E600042EA012109B2234A5180027CC17B42EA45
:101E7000012109B21F4A9180417C917136E01E49CF
:101E800009881D4A1181017BC27A41EA02211A4A5E
:101E90001180827B417B42EA012109B2164A5180BE
:101EA000027CC17B42EA012109B2134A9180417C44
:101EB00091711BE011490988104A1181017BC27A96
:101EC00041EA02210D4A1180827B417B42EA0121D5
:101ED00009B20A4A5180027CC17B42EA012109B25F
:101EE000064A9180417C917100E000BF00BF7047BD
:101EF0004C0C0220560C0220600C02206A0C0220BE
:101F00002DE9F0418AB004460D4616461F46DDF81D
:101F100040800121022004F0BFF90121880604F06D
:101F2000CBF90121880604F0D7F900214FF0806039
:101F300004F0D2F94FF44050089002208DF82400AC
:101F400000208DF8260003208DF8250001208DF853
:101F5000270008A92D4801F06FFC09220C212B480D
:101F600001F0B2FC09220D21284801F0ADFC00204F
:101F70008DF81A0001208DF81B0000208DF81C0040
:101F80008DF81D008DF81E008DF81F008DF816804D
:101F90008DF817408DF818608DF81950ADF8147051
:101FA00005A91B4800F0EDF90E208DF80E00002069
:101FB0008DF80F0001208DF810000020ADF804000E
:101FC000ADF80600ADF80800ADF80A00ADF80C0059
:101FD00001208DF8110001A800F0B6F801220221BD
:101FE0000B4800F0C5F940208DF8000004208DF862
:101FF000010000208DF8020001208DF803006846E2
:1020000003F076FF00200AB0BDE8F0810004024032
:102010000068004000B585B04FF4007000900020CB
:102020008DF808008DF8090008208DF80A000020BE
:102030008DF80B0000218DF80C108DF80D108DF827
:102040000E108DF80F108DF810108DF811108DF8FE
:1020500012106946024800F096FA05B000BD000073
:102060000064004010B54FF400700B490860002078
:1020700008724872082088720020C8720021064841
:10208000017341738173C17301744174817401469A
:10209000024800F078FA10BD940C02200064004061
:1020A000B1F5007F3AD00FDC202928D006DC0129C9
:1020B0001CD004291DD0082940D11DE0402921D081
:1020C000B1F5807F3AD126E0B1F5004F31D006DC82
:1020D000B1F5806F25D0B1F5006F2FD124E0B1F5B7
:1020E000803F12D0B1F5003F28D111E0154A82603F
:1020F00025E00822C26022E01022C2601FE0082210
:1021000002611CE01022026119E00822426016E020
:102110001022426013E00422426010E00422426078
:102120000DE0042242600AE0002282610422426043
:1021300005E0002282610422426000E000BF00BF8F
:10214000704700000101010010B50021837A0122CF
:1021500002FA03F13D4A126842F001023B4B1A6059
:102160003A4A1C3212688A43384B1C331A60027B8D
:10217000CAB9364A0C3212688A43344B0C331A609F
:102180004288C38842EA0343304A4032847A42F8A4
:1021900034300288838842EA03432C4A4032847AEE
:1021A00002EBC4025360027B012A19D1274A0C3288
:1021B00012680A43254B0C331A604288038842EAAE
:1021C0000343224A4032847A42F83430C2888388FA
:1021D00042EA03431D4A4032847A02EBC402536050
:1021E000C27A3AB9194A121D12688A43174B1B1D4D
:1021F0001A6006E0154A121D12680A43134B1B1D94
:102200001A60028932B9114A143212688A430F4B9C
:1022100014331A600289012A06D10C4A143212685A
:102220000A430A4B14331A60427B012A06D1074A3B
:102230001C3212680A43054B1C331A60034A1268A9
:1022400022F00102014B1A6010BD00000066004040
:1022500070B504460D46002660692840002871D0FC
:10226000B5F5807F5CD010DC082D35D006DC012D63
:1022700020D0022D24D0042D72D127E0102D31D092
:10228000202D35D0402D6BD138E0B5F5004F60D012
:1022900009DCB5F5007F49D0B5F5806F4CD0B5F5B8
:1022A000006F5DD14FE0B5F5803F2DD0B5F5003F13
:1022B00056D12FE0A0682D4900F0A4FA064651E05F
:1022C000E068032100F09EFA06464BE0E068082132
:1022D00000F098FA064645E0E068102100F092FA16
:1022E00006463FE02069032100F08CFA064639E0FB
:1022F0002069082100F086FA064633E020691021A3
:1023000000F080FA06462DE06068082100F07AFAB5
:10231000064627E06068102100F074FA064621E0C6
:10232000A069012100F06EFA06461BE0A0690221B7
:1023300000F068FA064615E0A069042100F062FA90
:1023400006460FE00FE0A069702100F05BFA064638
:1023500008E06068042100F055FA064602E0FFE755
:10236000002600BF00E00026304670BD01010100DC
:102370001AB143690B43436102E043698B434361F4
:10238000704730B5024600200023146824F0020490
:102390001460146844F00104146000E05B1C54688D
:1023A00004F001041CB94FF6FF74A342F6D154683F
:1023B00004F001040CB900206CE08C79012C04D1EC
:1023C000146844F08004146003E0146824F080046E
:1023D0001460CC79012C04D1146844F040041460DA
:1023E00003E0146824F0400414600C7A012C04D13A
:1023F000146844F02004146003E0146824F02004FE
:1024000014604C7A012C04D1146844F01004146058
:1024100003E0146824F0100414608C7A012C04D1B9
:10242000146844F00804146003E0146824F00804FD
:102430001460CC7A012C04D1146844F004041460B4
:1024400003E0146824F0040414608C78A407CD78A9
:1024500044EA05640D7944EA05444D7944EA05549B
:102460000D886D1E2C43D461146824F0010414609F
:10247000002300E05B1C546804F001041CB14FF61B
:10248000FF74A342F6D1546804F001040CB100209B
:1024900000E0012030BD10B500F5D87303EB011347
:1024A0001B6803F004031372137A53B900F5D87351
:1024B00003EB01131B6840F2FF7404EA53531360EB
:1024C00009E000F5D87303EB01131B686FF060445B
:1024D00004EAD303536000F5D87303EB01131B68C0
:1024E00003F00203537200F5D87303EB01135B682A
:1024F00003F00F03937200F5D87303EB01135B68CD
:102500001B0AD37400F5D87303EB01139B68D372D5
:1025100000F5D87303EB01139B681C0A147300F5D4
:10252000D87303EB01139B681C0C547300F5D8732C
:1025300003EB01139B681B0E937300F5D87303EB39
:102540000113DB68D37300F5D87303EB0113DB6869
:102550001C0A147400F5D87303EB0113DB681C0C20
:10256000547400F5D87303EB0113DB681B0E9374EE
:1025700021B9C36843F02003C36003E0036943F05B
:102580002003036110BD10B502460020936803F0DC
:102590008063B3F1806F00D110E0936803F00063B3
:1025A000B3F1006F01D1012008E0936803F080537C
:1025B000B3F1805F01D1022000E00420042874D030
:1025C00002F5C07303EB00131B6803F0010402F56E
:1025D000C07303EB00131C600B7A7BB94B7A0C8839
:1025E00043EA445302F5C07404EB00142468234307
:1025F00002F5C07404EB0014236010E00B7A4C6801
:1026000043EAC4034C7A234302F5C07404EB00147C
:102610002468234302F5C07404EB001423608B7A12
:1026200003F00F038B7202F5C07303EB00135B68BA
:1026300023F00F0402F5C07303EB00135C6002F596
:10264000C07303EB00135B688C7A234302F5C074FC
:1026500004EB001463608B7B1C064B7B44EA034451
:102660000B7B44EA0323CC7A234302F5C07404EBCA
:102670000014A3608B7C1C064B7C44EA03440B7C57
:1026800044EA0323CC7B234302F5C07404EB00141B
:10269000E36002F5C07303EB00131B6843F0010411
:1026A00002F5C07303EB00131C6010BD0168A1F2BA
:1026B00001210A297DD2DFE801F0050607087D988F
:1026C0009898466100BF00BF00BF0178491E484A84
:1026D00011701146097801EB8101464A32F8111058
:1026E000434A127802EB8202424B03EB4202118111
:1026F000017BC27A41EA02213D4A127802EB820252
:1027000023F81210827B417B42EA012109B2384A48
:10271000127802EB820203EB42025180027CC17B01
:1027200042EA012109B2324A127802EB820203EB3B
:1027300042029180417C2E4A127802EB820203EB26
:102740004202917152E02C4909882B4A1181017B88
:10275000C27A41EA0221284A1180827B417B42EA07
:10276000012109B2244A9180027CC17B42EA012105
:1027700009B2214A5180417C917137E01F49098893
:102780001E4A1181017BC27A41EA02211B4A118053
:10279000827B417B42EA012109B2184A9180027C86
:1027A000C17B42EA012109B2144A5180417C9171F6
:1027B0001CE01AE012490988114A1181017BC27A92
:1027C00041EA02210E4A1180827B417B42EA0121CB
:1027D00009B20B4A5180027CC17B42EA012109B255
:1027E000074A9180417C917100E000BF00BF7047B3
:1027F000BC000020240C0220100C02201A0C022025
:10280000740C02200246002002EA01030BB10120F1
:1028100000E000207047000010B50421034801F0DB
:1028200078F801200249087010BD00000020024025
:102830004703002010B50421034801F068F8002088
:102840000249087010BD000000200240470300202C
:1028500010B51049104800F029F9C8B10D490E48CB
:1028600000F022F80DF088FD10F026F801280FD0B6
:102870000A490B4800680FF021FA0848006838B18F
:102880004FF0805007490860BFF34F8FBFF36F8F41
:1028900010BD0000000800208864024030020020C3
:1028A000B401002004ED00E00246094B9A4201D237
:1028B000084801E00648103801F000531BB1064BF0
:1028C0000B40C36002E0044B0B4083607047000084
:1028D00010640240006002407D0F7D0F21B102684C
:1028E00042F00102026003E0026822F0010202608D
:1028F00070470000016821F00101016000210160C2
:1029000041608160C1600161212141614A49884281
:1029100004D13D21484A103A91608CE04649183173
:10292000884205D14FF47461434A103A916082E0C5
:1029300041493031884205D14FF474113E4A103A72
:10294000916078E03C494831884205D14FF074618C
:10295000394A103A91606EE037496031884204D1BB
:102960003649354A103AD16065E0334978318842BA
:1029700004D13349304A103AD1605CE02E4990319D
:10298000884204D12F492C4A103AD16053E02A4999
:10299000A831884205D14FF03D51274A103AD16005
:1029A00049E02949884204D13D21274A083A11606B
:1029B00041E025491831884205D14FF47461224A1B
:1029C000083A116037E020493031884205D14FF490
:1029D00074111D4A083A11602DE01B4948318842A4
:1029E00005D14FF07461184A083A116023E0164986
:1029F0006031884204D11149134A121F11601AE054
:102A000011497831884204D10D490F4A121F1160D3
:102A100011E00D499031884204D10A490A4A121F37
:102A2000116008E00849A831884204D14FF03D51B7
:102A3000054A121F11607047106002403D000020DF
:102A4000400F002000003D201064024021B10268C8
:102A500042F48022026003E0026822F480220260D5
:102A6000704722B1036843F40023036003E0036866
:102A700023F40023036001617047014600200A68C7
:102A800002F001020AB1012000E000207047014677
:102A9000486880B27047014600200A6802F40022AC
:102AA0000AB1012000E000207047000030B5034665
:102AB0000A46002000240B4DAB4201D20A4901E036
:102AC0000849103902F000550DB14C6800E00C685F
:102AD000064D2C4004EA02050DB1012000E0002063
:102AE00030BD000010640240006002407D0F7D0F89
:102AF00010B501F080034BB122B1436943F080036C
:102B0000436103E0436923F08003436180290BD0D4
:102B10002AB1036801F01E042343036004E0036844
:102B200001F01E04A343036010BD000010B5002295
:102B30000268134B1A40CC680B6823434C6923434B
:102B40008C692343CC6923430C6A23434C6A234397
:102B50008C6A23434C6B23438C6B23431A430260E0
:102B6000426922F00702D1E90B3423431A43426140
:102B70000B6943604B6883608B68C36010BD0000C5
:102B80003F801CF04160704770B504460D462946F1
:102B9000204604F077FF70BD10B54848007840B17A
:102BA0000020464908704648017846480078FEF7FC
:102BB000ADFA4548007850B30020434908704348B7
:102BC000006A04EE100A4148C06903EE900A3F48CB
:102BD000806903EE100A3D48406902EE900A3B48C6
:102BE000006902EE100A3948C06801EE900A3748C1
:102BF000806801EE100A3548406800EE900A3348BC
:102C0000006800EE100A0120FEF7A4FA54E03048F4
:102C1000007850B300202E4908702C48406C04EE18
:102C2000100A2A48006C03EE900A2848C06B03EE95
:102C3000100A2648806B02EE900A2448406B02EE90
:102C4000100A2248006B01EE900A2048C06A01EE8B
:102C5000100A1E48806A00EE900A1C48406A00EE86
:102C6000100A0220FEF776FA26E01A48007818B318
:102C70000020184908701548C06D02EE900A1348EC
:102C8000806D02EE100A1148406D01EE900A0F4867
:102C9000006D01EE100A0D48C06C00EE900A0B4862
:102CA000806C00EE100A9FED0C4ADFED0B3A9FEDB1
:102CB0000A3A0320FEF74EFA10BD000095010020ED
:102CC000940100209301002090010020AB0200201D
:102CD000910100209201002000000000704710B513
:102CE0004FF4807000F012F840B14FF4807000F0A3
:102CF00007F80DF049FB172003F0D6FE10BD0000C9
:102D00000149086070470000143C01400146002062
:102D1000034A12680A400AB1012000E0002070470F
:102D2000143C0140002123498279002A3AD00A4606
:102D3000126803689A430B461A600A1D12680368FA
:102D40009A430B1D1A60027911440A6803681A43FA
:102D50000A60184A0832126803689A43154B083310
:102D60001A601A1D126803689A43124B0C331A60DA
:102D70004279102A0ED11A1F126803681A430D4BAC
:102D800008331A601A1D126803681A43094B0C3382
:102D90001A600DE00749427911440A6803681A4332
:102DA0000A6005E0027911440A6803689A430A60E0
:102DB00070470000003C014030B10749096841F408
:102DC0008061054A116005E00349096821F48061CA
:102DD000014A116070470000003C024070B5044693
:102DE0000A460026092502B909E0012A01D1160286
:102DF00005E0022A01D1160201E04FF4407600F00E
:102E00009DF80546092D28D11548006820F440702A
:102E100013490860084600683043086008460068A7
:102E200020F0F80008600846006844F002010843FA
:102E30000B4908600846006840F48030086000F0E4
:102E40007DF805460648006820F002000449086045
:102E50000846006820F0F8000860284670BD0000B1
:102E6000103C024009201349096801F48031B1F592
:102E7000803F01D101201CE00E49096801F01001DA
:102E800009B1062015E00B49096801F4807109B108
:102E900002200EE00749096801F0E00109B10720AE
:102EA00007E00449096801F0020109B1082000E0C7
:102EB000092070470C3C02400348006840F0004085
:102EC0000149086070470000103C024030B50246DE
:102ED0000C46092500F032F80546092D17D10D489A
:102EE000006820F440700B490860084600680860DC
:102EF0000846006840F001000860147000F01EF8F9
:102F000005460448006820F0010002490860284690
:102F100030BD0000103C02400548006800F0004051
:102F200028B1044802490C3908600348086070471A
:102F3000103C024023016745AB89EFCD08B509205D
:102F40000090FFF78FFF009002E0FFF78BFF0090EB
:102F50009DF800000128F8D09DF8000008BD10B5CC
:102F6000044604B910BD94F8AD0220B904F12C0058
:102F70000CF006FF37E094F8AD02022810D1B4F847
:102F8000B20220B904F12C000CF0FAFE2BE0B4F8E8
:102F9000B202012827D104F12C000CF0C1FE22E07E
:102FA00094F8AD02012804D104F12C000CF0B8FE15
:102FB00019E094F8AD02032804D104F12C000CF0C0
:102FC000A9FD10E094F8AD02042804D104F12C000E
:102FD0000CF0A6FE07E094F8AD02062803D104F138
:102FE0002C000CF097FD94F8AD0248B90021A4F82C
:102FF000941294F8AF0288B920460CF0B9FD0DE0A8
:1030000094F8AF0218B920460CF0B2FD06E094F82F
:10301000AF02012802D120460CF044FE00BFA1E718
:1030200010B52DED028B044614B9BDEC028B10BD1A
:10303000B4F8B40210B101280ED106E0364890ED84
:10304000000A364880ED000A06E0354890ED000A97
:10305000324880ED000A00BF00BF606A90ED000AB0
:1030600084ED3A0A2D4A92ED000ABCEEC00A10EE39
:10307000102A91B2E26A10880DF04AF984ED380AFC
:103080009FED280A84ED6F0AD4ED6F0AB0EE600A56
:10309000FDF70EF9A06AD0ED020A20EE208AD4EDE9
:1030A0006F0AB0EE600AFDF73FF9A06AD0ED010AA1
:1030B00000EE608AB1EE480A84ED3C0AD4F8E401DF
:1030C000B0F9020000EE100AB8EEC00ADFED160AF1
:1030D00020EE200A84EDA30A04F5F27000F009FA4C
:1030E0000D4A92ED000ABCEEC00A10EE102A91B211
:1030F000E26A10880DF00CF90C4880ED000A0068B7
:10310000FDF7A1FA41EC180B53EC182B08A10A4863
:1031100009F02CFC00BF88E7680200207002002044
:103120006C020020CDCCCCBDF1A23E3B640200205D
:10313000252E326600000000C412022010B586B0B1
:1031400004460CF007F920600CF076F8E0620CF011
:10315000FDF8C4F8E4010CF067F860620CF068F860
:10316000A062002084F8AD02022084F8AC020120A5
:1031700084F8AF020020A4F8B202A4F8B4029FEDD4
:10318000270A84ED360A9FED260A84ED370A9FED63
:10319000250A84ED9F0A94ED9F0A84EDA00A9FED15
:1031A000210A84EDA60A9FED200A84EDA70A9FED6F
:1031B0001F0A84EDA80A94EDA80A84EDA90A1C4A06
:1031C00007CA03AB07C31A4A0C3207CA8DE80700C7
:1031D000DFED180A9FED180A03AA002104F50C7010
:1031E00002F0C4FFF2EE040AB1EE080A6A460021BA
:1031F00004F5F47002F0BAFF2046FFF711FF94EDDA
:103200003A0A84ED3B0A94ED380A84ED390A94EDCC
:103210003C0A84ED3D0A06B010BD00007C59C43F55
:103220007C59C4BF0000000000C82F48009A0D4917
:103230008033010800409C450000FA4500B9704702
:1032400090F8AE12012908D090F8AD12012904D1EE
:1032500090ED380A80ED390A32E090F8AE1202297A
:1032600008D090F8AD12022904D190ED380A80ED13
:10327000390A25E090F8AE12032908D090F8AD1273
:10328000032904D190ED3A0A80ED3B0A18E090F84A
:10329000AE12042908D090F8AD12042904D190EDA3
:1032A000380A80ED390A0BE090F8AE12062907D0F3
:1032B00090F8AD12062903D190ED3A0A80ED3B0A51
:1032C00090F8AD12022906D1B0F8B21219B990EDFA
:1032D000380A80ED390A00BFB1E7000010B52DEDC6
:1032E000048B0446B0EE408AF0EE608AB0EE419A5C
:1032F00024B99FED260ABDEC048B10BD84ED048A31
:10330000C4ED038A78EEC89A9FED211ADFED210AF9
:10331000B0EE690A0CF088FF84ED050A94ED000A0E
:10332000D4ED050A20EE200A84ED080A94ED090A7E
:10333000D4ED010A94ED051A00EE810A84ED090A24
:1033400094ED020A20EE090A84ED0A0AD4ED070A78
:10335000B0EE600A04F124000AF09CF994ED080A2A
:10336000D4ED090A30EE200AD4ED0A0A30EE200A24
:1033700084ED0B0AD4ED060AB0EE600A04F12C00CD
:103380000AF088F994ED0B0AB5E700000000000090
:10339000DB0F4940DB0F49C000B9704780ED001AD0
:1033A000C0ED011A80ED022ADFED062AC0ED052AE4
:1033B000DFED042AC0ED042AC0ED070A80ED060AFD
:1033C00000BFEAE7000000001FB5044604B91FBDB6
:1033D0009FED3E0A8DED030A3D4A07CA8DE80700BE
:1033E0009FED3C2ADFED3B1ABAEE041AF0EE080A14
:1033F000B2EE040A04F13000FFF7CEFF9FED352A4C
:10340000DFED341ABAEE0A1AF0EE080AB2EE0E0A2E
:1034100004F16000FFF7C0FFDFED2F0A9FED2F0AD8
:103420006A46002104F1900002F0A0FE214603A8A4
:103430000BF0F6FF94F8AD0220B99FED240A84ED5D
:10344000400A41E094F8AD02022812D1B4F8B20269
:1034500020B99FED1E0A84ED400A35E0B4F8B202AF
:10346000012831D19DED030A04F12C0000F032F95E
:103470002AE094F8AD02012806D19DED030A04F17B
:103480002C0000F027F91FE094F8AD02032806D1C4
:103490009DED030A04F12C0000F0A2F814E094F86A
:1034A000AD02042806D19DED030A04F12C0000F0C2
:1034B00011F909E094F8AD02062805D19DED030A43
:1034C00004F12C0000F066F800BF80E70000000067
:1034D000983301080000008000409C450060EA46E7
:1034E00010B5044604B910BD20460CF01FF800BF0B
:1034F000F9E70168098802681289891A002905DD3F
:103500000168098802681289891A04E0016809893A
:1035100002681288891AB1F5805F2BDB016809887F
:1035200002681289914212DA0168098941F6FF7234
:10353000511A02681288114400EE101AB8EEC00A3F
:10354000D0ED260A30EE200A80ED260A21E001683F
:10355000098841F6FF72511A02681289114400EE7F
:10356000101AB8EEC00AD0ED260A30EEC00A80ED7F
:10357000260A0EE00168098802681289891A00EE9D
:10358000101AB8EEC00AD0ED260A30EE200A80EDFF
:10359000260A704710B52DED028B0446B0EE408A26
:1035A00014B9BDEC028B10BD94ED300A094880EDD2
:1035B000000AD0ED000A70EE880AB0EE600A9FEDB6
:1035C000061ADFED060A0CF02FFE84ED300A00BF6C
:1035D000E7E700007C020020DB0F4940DB0F49C019
:1035E00010B52DED028B0446B0EE408A14B9BDEC47
:1035F000028B10BDD4ED300A94ED2F1A70EEC10A83
:10360000B0EE600A9FED2F1ADFED2F0A0CF00CFED2
:103610002E4880ED000A94ED2D0AD0ED000A30EE20
:10362000200A30EE080AD4ED2B0AB4EEE00AF1EEDF
:1036300010FA11DDB5EEC08AF1EE10FA2DDD94ED31
:103640002B0AD4ED2D0A30EE600AD0ED000A30EEE0
:10365000600AB0EE408A20E094ED2D0A1B48D0EDC0
:10366000000A30EE200A30EE080AD4ED2C0AB4EE3F
:10367000E00AF1EE10FA10D2B5EEC08AF1EE10FABF
:103680000BD294ED2C0AD4ED2D0A30EE600AD0ED69
:10369000000A30EE600AB0EE408A94ED300A0C4821
:1036A00080ED000AD0ED000A70EE880AB0EE600AE4
:1036B0009FED041ADFED040A0CF0B6FD84ED300A2C
:1036C00000BF94E7DB0F4940DB0F49C074020020C4
:1036D0007802002000B97047D0ED2E0A70EE800A03
:1036E000C0ED2E0AD0ED2E0A90ED2B1AF4EEC10A91
:1036F000F1EE10FA04DDD0ED2B0AC0ED2E0A0CE03D
:10370000D0ED2E0A90ED2C1AF4EEC10AF1EE10FA6B
:1037100003D2D0ED2C0AC0ED2E0A00BFDBE700007B
:1037200008B5C9200EF0B2F91D48FFF707FD36E0D5
:103730000FF0D2F800901A48FFF7D2FE1848FFF7B2
:103740007DFD1748FFF76CFC1548FFF73DFE144858
:10375000FFF705FC1248B0F8040112490880104830
:10376000B0F804011049088000231A460846B0F951
:1037700000100C48B0F90000FEF7FAF90849B1F959
:10378000940200231A461946FEF794F9022168466E
:103790000EF0AAF900200EF023F804490860C7E7EC
:1037A000081002205C0200205E0200205802002067
:1037B00000B585B00121022002F06EFD01218803D1
:1037C00002F09AFD0821012003F066FA4FF48070A0
:1037D000009000208DF8040001208DF806000020E4
:1037E0008DF8070003208DF805006946114800F0A8
:1037F00023F84FF48070029000208DF80C00082010
:103800008DF80D0001208DF80E0002A8FFF78AFA4E
:1038100017208DF8100005208DF8110000208DF87C
:10382000120001208DF8130004A802F061FB05B01E
:1038300000BD000000040240F0B50A46002100234C
:10384000002400BF3DE0012505FA01F3156805EAF3
:1038500003049C4234D105684F000326BE40B543A3
:10386000056015794E00B540066835430560157949
:10387000012D02D01579022D16D185684F0003263F
:10388000BE40B543856055794E00B54086683543E6
:103890008560456801268E40B54345604568967948
:1038A0008E40B6B235434560C5684F000326BE4022
:1038B000B543C560D5794E00B540C6683543C5608F
:1038C000491C1029BFD3F0BDF0B5002300244D07DB
:1038D000ED0E02FA05F3CE1000F1200555F8265042
:1038E0004E07F70E0F26BE40B543CF1000F120065D
:1038F00046F82750CE1000F1200555F8265045EA2D
:103900000304CE1000F1200545F82640F0BD4183A8
:1039100070470183704742694A4042617047000026
:1039200030B5034613B94FF6FF7030BD09E013F808
:10393000014B82EA0400C0B2054D35F8100080EA60
:103940002222081EA1F10101F1D11046EDE700008D
:10395000D02E010830B5034605E013F8010B80EACC
:1039600002040448025D081EA1F10101F5D11046D0
:1039700030BD0000CF2D010800BFFEE7F0B50546C1
:10398000059C00207FE093ED050A00EB4006404FC8
:1039900007EB8606D6ED000A20EE200AD3ED060AD4
:1039A00000EB400607EB860696ED011A00EE810A51
:1039B000D3ED070A00EB400607EB860696ED021AE8
:1039C00000EE810A334E06EB8006D6ED000A30EE9B
:1039D000200A05EB800686ED000A93ED010A00EB54
:1039E00040062D4F07EB8606D6ED000A20EE200A92
:1039F000D3ED020A00EB400607EB860696ED011AAE
:103A000000EE810AD3ED030A00EB400607EB8606C1
:103A100096ED021A00EE810A204E06EB8006D6EDE6
:103A2000000A30EE200A01EB800686ED000A94EDD4
:103A3000010A00EB40061A4F07EB8606D6ED000A96
:103A400020EE200AD4ED020A00EB400607EB8606C2
:103A500096ED011A00EE810AD4ED030A00EB400650
:103A600007EB860696ED021A00EE810A0D4E06EB74
:103A70008006D6ED000A30EE200A02EB800686EDC5
:103A8000000A461CF0B20328FFF67DAFF0BD00002F
:103A9000BC010020280F0220E0010020340F02208A
:103AA00004020020500F022010B52DED028BB0EE65
:103AB000408A2748007838B30BF036FC00EE100A35
:103AC000B8EEC00AF0EE408AF0EE680AB0EE480A9E
:103AD000204802F053FA1F4890ED080AB5EEC00ADC
:103AE000F1EE10FA03D29FED1C0A80ED080A194886
:103AF00090ED080ABCEEC00A10EE100A84B221460E
:103B0000164803F08BFD20E00BF00EFC00EE100ACF
:103B1000B8EEC00AB4EEC80AF1EE10FA10D210489E
:103B20000078401C0E49087008460078C82807DD58
:103B30000120074908709FED0B0A064880ED0A0A2C
:103B400041F28731054803F069FDBDEC028B10BDE1
:103B5000280200209C0F022000000000000400400A
:103B60002C02002000401C4508B507200DF08EFFF8
:103B700000BF0CF03FFC0028FBD100BF0CF05AFA4C
:103B80000028FBD10CF07CFD04460EF043FEA44956
:103B90000860FFF70DFE1722A249A34802F0BEFFFE
:103BA00001221146A14803F041F8012202219F4859
:103BB00003F03CF80021102002F05EFF2EE100BF70
:103BC0004FF0FF3101200DF07FFD0128F8D1984919
:103BD0009448401C0CF07CFC9649924810300CF044
:103BE00071FA9448924B944A944900909448FFF794
:103BF000C5FE8F48007800F00100002846D09148AB
:103C00000078E8BB012141F2883003F09DFADFED36
:103C10008E0A9FED8E0A8E4A01218E4802F0A6FA86
:103C2000854A86498C48FDF75BF88C4B1A1F111F9B
:103C300089480BF005FB814890ED000A884880ED2B
:103C4000000A884880ED000A874880ED000A7B481A
:103C500090ED010A824880ED010A824880ED010A58
:103C6000814880ED010A754890ED020A7C4880ED9C
:103C7000020A7C4880ED020A7B4880ED020A00E0DF
:103C800005E070480078401C6E490870BAE075483D
:103C900090ED000A744880ED000A714890ED000A2A
:103CA000704880ED000A90ED000A7048D0ED000ADF
:103CB00020EE200A6C48D0ED000A6C4890ED011A05
:103CC00000EE810A5D48D0ED000A684890ED021AC6
:103CD00000EE810A624880ED000A624890ED010A18
:103CE000614880ED010A5E4890ED010A5D4880ED73
:103CF000010A90ED010A5D48D0ED000A20EE200A8D
:103D00005948D0ED010A594890ED011A00EE810A98
:103D10004A48D0ED010A554890ED021A00EE810A9A
:103D20004F4880ED010A4F4890ED020A4E4880ED61
:103D3000020A4B4890ED020A4A4880ED020A90EDD3
:103D4000020A4A48D0ED000A20EE200A4648D0ED8B
:103D5000020A464890ED011A00EE810A3748D0ED7C
:103D6000020A424890ED021A00EE810A3C4880EDBA
:103D7000020A314B024632499FED3D0A3648FDF7B3
:103D800027F9364B1A1F111F33480BF059FA3948DF
:103D90000088B8B9384890ED000A384880ED000A2C
:103DA000354890ED010A354880ED010A324890ED22
:103DB000020A324880ED020A2E480088401C2D4934
:103DC00008801FE02B480088B0F5FA7F0EDA00214A
:103DD000084609F03FFF2A48007898B11448027855
:103DE000244B174925480CF029F80BE0214800889E
:103DF000B0F5FA7F06D109F025FF1E480088401C67
:103E00001C4908800A48D0ED040AB0EE600AFFF7AA
:103E10004BFE00200DF0E4FC1A490860CFE60000DC
:103E2000B4010020E40E022050330108005001408C
:103E3000FC0E0220400F0220740F0220680F0220A7
:103E40005C0F0220290200200080894500A08C45DB
:103E5000683301089C0F02208C0F0220880F02207B
:103E6000FC0F0220F00F0220E40F0220743301083F
:103E70006F12833A2A0200201C0F0220280F022012
:103E800028020020B801002070B506460C461546F1
:103E90001948007870B3288888B9184890ED000A4E
:103EA000174880ED000A154890ED010A144880ED8E
:103EB000010A124890ED020A114880ED020A1148E9
:103EC00002782B4610490E480BF0B8FF0C4890EDD5
:103ED000000A84ED000A90ED010A84ED010A90EDDC
:103EE000020A84ED020A0949206808606068486097
:103EF000A068886070BD0000280200201C0F02200E
:103F0000280F0220FC0E02205C0F02202015022048
:103F100091ED000A054A82ED000A91ED010A82ED59
:103F2000010A91ED020A82ED020A70471C0F02207D
:103F30004CF6CC400149086070470000003000405A
:103F400010B500F013F810BD70B505460C4645F2EB
:103F5000555000F01FF8284600F010F8204600F0F9
:103F600013F800F003F8FFF7E3FF70BD4AF6AA204C
:103F70000149086070470000003000400149486076
:103F80007047000000300040014988607047000021
:103F900000300040014908607047000000300040D8
:103FA00000BF96200DF072FD09480068401C0849CA
:103FB0000860FEF7F1FD06480068052804DA00F005
:103FC00065F804F01FF8ECE700F0E6FFE9E7000011
:103FD000B001002000BF01200DF058FD0EF07CFC68
:103FE0000D49086002F004FC012802D102F0C0FE75
:103FF00001E0FFF7A5FF02F049FC07490968884284
:1040000002D802F0BFFE01E002F0C2FE0121024828
:104010000DF06AFDDFE70000AC01002010B5154887
:104020000078022825D11348D0F80300124908600F
:10403000124890ED000A0846D0ED000AB4EE600A7E
:10404000F1EE10FA0AD00E480088401C0C49088096
:10405000094890ED000A094880ED000A0EF03CFC8A
:104060000849086002F03EFC06490968081A06493A
:10407000086010BD1A010020580100205C010020DA
:104080003601002050010020540100202DE9F04F9E
:10409000D7B0FE480088569056980CF003F9814638
:1040A000FA480088559055980CF0FCF88246022694
:1040B0000C274FF004084FF49670529040F2BE5B0C
:1040C0002022F3494AA8FCF769F92022F04920315F
:1040D00042A8FCF763F92022ED4940313AA8FCF7E9
:1040E0005DF92022EA49603132A8FCF757F9202215
:1040F000E74980312AA8FCF751F92022E449A03190
:1041000022A8FCF74BF92022E149C0311AA8FCF79C
:1041100045F92022DE49E03112A8FCF73FF92022C0
:10412000DC490AA8FCF73AF92022DA49203102A832
:10413000FCF734F94FF47A700DF0A8FC0AF08AFF0E
:1041400001900198652822D007DC072831D2DFE8EA
:1041500000F0300C0F1215181B006638052828D205
:10416000DFE800F0181B1E21240040F2011521E0B9
:104170004FF481751EE040F203151BE04FF4827589
:1041800018E040F2051515E04FF4837512E040F297
:1041900065150FE04FF4B3750CE040F2671509E0C8
:1041A0004FF4B47506E040F2691503E04FF4B575BD
:1041B00000E000BF00BF0020B74948730846007CFC
:1041C00020F03800383008740846007C20F00700E2
:1041D000401C08740846B0F8110067F38E10A1F86F
:1041E00011000921AC48408A61F3CF10AA494882E6
:1041F000B1F81510529860F38C01A748A0F815107B
:104200004FF44D71C08A61F34F10A349C88208462C
:10421000808A66F3090088820846008A20F470715B
:104220009D480182407C68F385009B4948740024C6
:1042300005E00021984820300155601CC4B21E2CB6
:10424000F7DB4AA9944820300DF075F9A520924972
:1042500008703720A1F801000020C87008460168E6
:10426000C9F80010007989F8040005214846FDF7D7
:10427000DDF840F201308849A1F805004FF488705C
:10428000A1F80700019881B28348A0F80910A0F8AE
:104290000B503922411D09F10500FCF77FF8402140
:1042A0004846FDF7ABF84020549001207A49487306
:1042B0000846007C20F03800383008740846007C3E
:1042C00020F00700401C08740846B0F8110067F39E
:1042D0008E10A1F811000C216F48408A61F3CF10B5
:1042E0006D494882B1F81510529860F38C016A4804
:1042F000A0F8151040F20231C08A61F34F106649F0
:10430000C8820846808A66F3090088820846008AC7
:1043100020F4707160480182407C68F385005E493A
:104320004874002405E000215B4820300155601CE2
:10433000C4B21E2CF7DB42A9574820300DF0FBF821
:10434000A520554908703720A1F801000020C87049
:1043500008460168CAF8001000798AF804000521AF
:104360005046FDF763F840F201304B49A1F80500D3
:104370004FF48870A1F80700019881B24648A0F870
:104380000910A0F80B503922411D0AF10500FCF775
:1043900005F840215046FDF731F8402053900024A5
:1043A0000DE019F804103D4808F05DFA00BF402107
:1043B0003A4808F08DF90028F9D0601CC4B254982E
:1043C0008442EEDB00240DE01AF80410334808F0B4
:1043D0004AFA00BF4021314808F07AF90028F9D0A4
:1043E000601CC4B253988442EEDB02202A49487311
:1043F0000846007C20F03800383008740846007CFD
:1044000020F00700401C08740846B0F8110067F35C
:104410008E10A1F811000C211F48408A61F3CF10C3
:104420001D494882B1F81510529860F38C011A4862
:10443000A0F815104FF43471C08A61F34F1016497B
:10444000C8820846808A66F3090088820846008A86
:1044500020F4707110480182407C68F385000E4999
:104460004874002405E000210B4820300155601CF1
:10447000C4B21E2CF7DB3AA9074820300DF05BF8D8
:10448000A5200549087037200AE000003A01002005
:10449000D0300108D0310108020E0220004800404F
:1044A000A1F801000020C87008460168C9F8001092
:1044B000007989F8040005214846FCF7B7FF40F26F
:1044C0000130FE49A1F805004FF48870A1F80700FB
:1044D000019881B2F948A0F80910A0F80B503922D0
:1044E000411D09F10500FBF759FF40214846FCF743
:1044F00085FF402054900320F04948730846007C13
:1045000020F03800383008740846007C20F007009E
:10451000401C08740846B0F8110067F38E10A1F82B
:1045200011001121E548408A61F3CF10E349488228
:10453000B1F81510529860F38C01E048A0F81510FE
:1045400040F29E21C08A61F34F10DC49C8820846C0
:10455000808A66F3090088820846008A20F4707118
:10456000D6480182407C68F38500D4494874002411
:1045700005E00021D14820300155601CC4B21E2C3A
:10458000F7DB32A9CD4820300CF0D5FFA520CB4970
:1045900008703720A1F801000020C87008460168A3
:1045A000CAF8001000798AF8040005215046FCF78B
:1045B0003DFF40F20130C149A1F805004FF4887079
:1045C000A1F80700019881B2BC48A0F80910A0F832
:1045D0000B503922411D0AF10500FBF7DFFE402197
:1045E0005046FCF70BFF4020539000240DE019F8D3
:1045F0000410B34808F037F900BF4021B04808F074
:1046000067F80028F9D0601CC4B254988442EEDBED
:1046100000240DE01AF80410A94808F024F900BF9E
:104620004021A74808F054F80028F9D0601CC4B213
:1046300053988442EEDB0620A04948730846007C6C
:1046400020F03800383008740846007C20F007005D
:10465000401C08740846B0F8110067F38E10A1F8EA
:10466000110004219548408A61F3CF109349488294
:104670000846B0F815006BF38C00A1F815004FF454
:104680002A718E48C08A61F34F108C49C88208464F
:10469000808A66F3090088820846008A20F47071D7
:1046A00086480182407C68F3850084494874002470
:1046B00005E00021814820300155601CC4B21E2C49
:1046C000F7DB2AA97D4820300CF035FFA5207B4977
:1046D00008703720A1F801000020C8700846016862
:1046E000C9F80010007989F8040005214846FCF754
:1046F0009DFE40F201307149A1F805004FF4887029
:10470000A1F80700019881B26C48A0F80910A0F840
:104710000B503922411D09F10500FBF73FFE4021F6
:104720004846FCF76BFE40205490072063494873CD
:104730000846007C20F03800383008740846007CB9
:1047400020F00700401C08740846B0F8110067F319
:104750008E10A1F8110004215848408A61F3CF104F
:10476000564948820846B0F815006BF38C00A1F852
:10477000150040F276215148C08A61F34F104F492D
:10478000C8820846808A66F3090088820846008A43
:1047900020F4707149480182407C68F385004749E4
:1047A0004874002405E00021444820300155601C75
:1047B000C4B21E2CF7DB22A9404820300CF0BBFE0F
:1047C000A5203E4908703720A1F801000020C870DC
:1047D00008460168CAF8001000798AF8040005212B
:1047E0005046FCF723FE40F201303449A1F80500A1
:1047F0004FF48870A1F80700019881B22F48A0F803
:104800000910A0F80B503922411D0AF10500FBF7F1
:10481000C5FD40215046FCF7F1FD40205390002497
:104820000DE019F80410264808F01DF800BF4021DB
:10483000234807F04DFF0028F9D0601CC4B25498FB
:104840008442EEDB00240DE01AF804101C4808F046
:104850000AF800BF40211A4807F03AFF0028F9D0B3
:10486000601CC4B253988442EEDB0820134948739D
:104870000846007C20F03800383008740846007C78
:1048800020F00700401C08740846B0F8110067F3D8
:104890008E10A1F8110005210848408A61F3CF105D
:1048A000064948820846B0F815006BF38C00A1F861
:1048B00015004FF411710148C08A03E0020E022076
:1048C0000048004061F34F10FC49C8820846808AC6
:1048D00066F3090088820846008A20F47071F74860
:1048E0000182407C68F38500F4494874002405E0A7
:1048F0000021F24820300155601CC4B21E2CF7DBA9
:104900001AA9EE4820300CF016FEA520EB490870DD
:104910003720A1F801000020C87008460168C9F8D6
:104920000010007989F8040005214846FCF77EFD57
:1049300040F20130E149A1F805004FF48870A1F878
:104940000700019881B2DD48A0F80910A0F80B50CB
:104950003922411D09F10500FBF720FD40214846A1
:10496000FCF74CFD402054900920D4494873084678
:10497000007C20F03800383008740846007C20F0B5
:104980000700401C08740846B0F8110067F38E1049
:10499000A1F811000721C948408A61F3CF10C74927
:1049A00048820846B0F815006BF38C00A1F815009A
:1049B00040F21221C148C08A61F34F10BF49C8823A
:1049C0000846808A66F3090088820846008A20F437
:1049D0007071BA480182407C68F38500B749487419
:1049E000002405E00021B54820300155601CC4B208
:1049F0001E2CF7DB12A9B14820300CF09CFDA5203D
:104A0000AE4908703720A1F801000020C8700846A0
:104A10000168CAF8001000798AF8040005215046A0
:104A2000FCF704FD40F20130A449A1F805004FF461
:104A30008870A1F80700019881B2A048A0F8091079
:104A4000A0F80B503922411D0AF10500FBF7A6FC26
:104A500040215046FCF7D2FC4020539000240DE04A
:104A600019F80410964807F0FEFE00BF4021944854
:104A700007F02EFE0028F9D0601CC4B2549884427E
:104A8000EEDB00240DE01AF804108D4807F0EBFE71
:104A900000BF40218A4807F01BFE0028F9D0601CA7
:104AA000C4B253988442EEDB0A2084494873084616
:104AB000007C20F03800383008740846007C20F074
:104AC0000700401C08740846B0F8110067F38E1008
:104AD000A1F8110011217948408A61F3CF1077497C
:104AE00048820846B0F815006BF38C00A1F8150059
:104AF0004FF4E1717148C08A61F34F106F49C88269
:104B00000846808A66F3090088820846008A20F4F5
:104B100070716A480182407C68F385006749487477
:104B2000002405E00021654820300155601CC4B216
:104B30001E2CF7DB0AA9614820300CF0FCFCA520F4
:104B40005E4908703720A1F801000020C8700846AF
:104B50000168C9F80010007989F804000521484669
:104B6000FCF764FC40F201305449A1F805004FF411
:104B70008870A1F80700019881B25048A0F8091088
:104B8000A0F80B503922411D09F10500FBF706FC86
:104B900040214846FCF732FC402054900B20474906
:104BA00048730846007C20F0380038300874084606
:104BB000007C20F00700401C08740846B0F8110083
:104BC00067F38E10A1F8110011213C48408A61F36F
:104BD000CF103A4948820846B0F815006BF38C00B4
:104BE000A1F815004FF4F0713448C08A61F34F10FA
:104BF0003249C8820846808A66F3090088820846DE
:104C0000008A20F470712D480182407C68F3850091
:104C10002A494874002405E0002128482030015525
:104C2000601CC4B21E2CF7DB02A9244820300CF013
:104C300082FCA520214908703720A1F8010000203E
:104C4000C87008460168CAF8001000798AF80400A4
:104C500005215046FCF7EAFB40F201301749A1F864
:104C600005004FF48870A1F80700019881B213483D
:104C7000A0F80910A0F80B503922411D0AF10500D7
:104C8000FBF78CFB40215046FCF7B8FB40205390CB
:104C900000240DE019F80410094807F0E4FD00BFF6
:104CA0004021074807F014FD0028F9D0601CC4B269
:104CB00054988442EEDB002412E00000020E022031
:104CC000004800401AF804100B4807F0CCFD00BF64
:104CD0004021094807F0FCFC0028F9D0601CC4B250
:104CE00053988442EEDB50460AF04EFA48460AF0EA
:104CF0004BFA57B0BDE8F08F004800402DE9F04175
:104D000004460025002714B90120BDE8F0818A4837
:104D100021680160217901712078A52876D10521CB
:104D2000204607F0C7FD0128F8D1607800F1090698
:104D30003146204607F09EFD0128EFD1012560791C
:104D4000A17940EA012740F20321781A8F426FD0FF
:104D50001DDC40F20111A7EB01008F4257D006DCA9
:104D6000062F35D2DFE807F0CC2935393F46042835
:104D70005FD004DC01284FD0032829D153E0B0F5DF
:104D8000807F5AD0A0F201100028F6D15BE00628FF
:104D900070D006DC0628E4D2DFE800F0B261656E70
:104DA0007A84072867D0B0F5807F6FD0A0F2011019
:104DB00000286CD00128E0D198E0604854F8071F23
:104DC00001606168416021890181A17AE41F8172DB
:104DD00096E05B48E179017092E01C22E11D5948A0
:104DE000FBF7DCFA8CE05848B4F807100180617AD0
:104DF000817085E0554854F8071F01606168416083
:104E000021890181A17AE41F817279E089E050480B
:104E1000D4F80710016073E04E48B4F80710018021
:104E2000617A81706CE04C48B4F80710018067E04B
:104E30000FE04A48E179017062E01B22E11D484819
:104E4000FBF7ACFA5CE00E22E11D4648FBF7A6FA40
:104E500056E01022E11D4448FBF7A0FA50E0434819
:104E6000E17901704CE04248B4F807100180617AA2
:104E7000817045E01BE01FE03E48E1790170007859
:104E8000000910B901203C49087039E01EE023E018
:104E90003A48D4F807100160B4F80B108180FFF78E
:104EA000BDF82DE03648B4F80710018028E03548F9
:104EB000D4F80710016023E0334854F8071F01605D
:104EC00061684160A168E41F816019E00F22E11D63
:104ED0002E48FBF763FA13E02D4854F8071F0160D2
:104EE00061684160A168E41F816009E0284854F8C6
:104EF000071F0160616841602189E41F018100BFD3
:104F000000BF0D48B0F80110E01D08448078A528C6
:104F100007D10949B1F80120E11D1144881CFFF7B0
:104F2000EDFE012D03D101201A49087002E0002096
:104F3000184908702846E8E62B010020D00C022012
:104F400008010020DB0C022009010020FB0C0220DC
:104F50000C01002010010020140100201601002087
:104F6000060D0220210D0220310D02201701002024
:104F70001801002019010020380100201A0100202A
:104F80002101002027010020410D02204D0D0220AB
:104F9000660D0220300100202DE9F04FD7B0FE4809
:104FA0000088569056980BF07DF98146FA480088A3
:104FB000559055980BF076F9824602260C274FF053
:104FC00004084FF4DC7052904FF4C86051904FF4D5
:104FD0007A700CF05BFD0AF03DF8009000986528AF
:104FE00022D007DC072831D2DFE800F0300C0F12A6
:104FF00015181B006638052828D2DFE800F0181BBA
:105000001E21240040F2011521E04FF481751EE0BD
:1050100040F203151BE04FF4827518E040F20515CD
:1050200015E04FF4837512E040F265150FE04FF480
:10503000B3750CE040F2671509E04FF4B47506E073
:1050400040F2691503E04FF4B57500E000BF00BF02
:10505000D24890F824000B2854D2DFE800F0060D67
:10506000141B222930373E454C00CDA141A80CF03D
:1050700072FA4FF0040B46E0CBA141A80CF06BFA9A
:105080004FF0060B3FE0CAA141A80CF064FA4FF0C4
:10509000040B38E0C8A141A80CF05DFA4FF0040BF6
:1050A00031E0C7A141A80CF056FA4FF00A0B2AE0F4
:1050B000C6A141A80CF04FFA4FF0040B23E0C5A1A4
:1050C00041A80CF048FA4FF0060B1CE0C3A141A820
:1050D0000CF041FA4FF0040B15E0C2A141A80CF00E
:1050E0003AFA4FF0070B0EE0C0A141A80CF033FADA
:1050F0004FF0070B07E0BFA141A80CF02CFA4FF0CE
:10510000040B00E000BF00BFBC4890F8AD020728C8
:1051100036D2DFE800F0040B121920272E00B8A1C8
:1051200039A80CF018FA0A2050902AE09CA139A85E
:105130000CF011FA0420509023E0B2A139A80CF031
:105140000AFA042050901CE0B0A139A80CF003FA30
:105150000E20509015E0AEA139A80CF0FCF90E20FD
:1051600050900EE0ABA139A80CF0F5F90A20509050
:1051700007E0ABA139A80CF0EEF90420509000E054
:1051800000BF00BFA84890F83000052827D2DFE80C
:1051900000F0030A11181F0099A131A80CF0DBF9E7
:1051A0000A204F901CE0A1A131A80CF0D4F90720EF
:1051B0004F9015E09EA131A80CF0CDF911204F9031
:1051C0000EE097A131A80CF0C6F904204F9007E03B
:1051D00099A131A80CF0BFF90D204F9000E000BF5D
:1051E00000BF914890F8320010B101280ED106E0BE
:1051F00093A129A80CF0AFF906204E9007E091A1E9
:1052000029A80CF0A8F904204E9000E000BF00BFD0
:105210008E480078012806D16BA121A80CF09BF9DB
:1052200002204D9005E08AA121A80CF094F90320FA
:105230004D9088480078012806D163A119A80CF088
:105240008AF902204C9005E081A119A80CF083F99D
:1052500003204C9080480078012806D15AA111A85B
:105260000CF079F902204B9005E079A111A80CF01F
:1052700072F903204B9079480078012806D152A199
:1052800009A80CF068F902204A9005E070A109A86D
:105290000CF061F903204A9071480078012806D18A
:1052A00049A101A80CF057F90220499005E068A136
:1052B00001A80CF050F90320499064206949487313
:1052C0000846007C20F03800383008740846007C1E
:1052D00020F00700801C08740846B0F8110067F33E
:1052E0008E10A1F811000846408A6BF3CF10488257
:1052F000B1F81510529860F38C015A48A0F81510B7
:105300004FF44D71C08A61F34F105649C882084668
:10531000808A66F3090088820846008A20F470704B
:10532000403008820846407C68F3850048740024B9
:1053300005E000214B4820300155601CC4B21E2CF2
:10534000F7DB41A9474820300CF0F5F8A520454986
:1053500008703720A1F801000020C87008460168D5
:10536000C9F80010007989F8040005214846FCF7C7
:105370005DF840F201303B49A1F805004FF4887018
:10538000A1F80700009881B23648A0F80910A0F8EB
:105390000B503922411D67E03A01002074170220AA
:1053A000494E4954000000004D414E55414C00000B
:1053B00054494E5900000000485547450000000080
:1053C000434F4E56455253494F4E0000534E4147AE
:1053D00000000000535550504C59000053544F509A
:1053E000000000005245434F564552004E4F464F75
:1053F0005243450048454C50000000000810022070
:105400005A5F46004C4F434B00000000415F410093
:10541000525F41004D4F54494F4E4C45535300008D
:105420005350494E00000000D01202204E5F4D0044
:10543000465F475F590000004E5F465F590000001D
:105440004E4F4D00534C4F570000000045030020C5
:105450004F46460046030020470300204803002033
:10546000C0000020020E022009F10500FAF796FFA5
:1054700040214846FBF7C2FF402054906520FB497D
:1054800048730846007C20F038003830087408461D
:10549000007C20F00700801C08740846B0F811005A
:1054A00067F38E10A1F81100498A509860F3CF116C
:1054B000EE484182ED49B1F81510529860F38C0125
:1054C000EA48A0F8151040F20231C08A61F34F108B
:1054D000E649C8820846808A66F309008882084641
:1054E000008A20F47070403008820846407C68F3DF
:1054F00085004874002405E00021DC482030015577
:10550000601CC4B21E2CF7DB39A9D84820300CF03F
:1055100012F8A520D54908703720A1F80100002015
:10552000C87008460168CAF8001000798AF80400BB
:1055300005215046FBF77AFF40F20130CB49A1F834
:1055400005004FF48870A1F80700009881B2C748A1
:10555000A0F80910A0F80B503922411D0AF10500EE
:10556000FAF71CFF40215046FBF748FF40205390BC
:1055700000240DE019F80410BD4807F074F900BFCD
:105580004021BB4807F0A4F80028F9D0601CC4B241
:1055900054988442EEDB00240DE01AF80410B4485D
:1055A00007F061F900BF4021B14807F091F80028E9
:1055B000F9D0601CC4B253988442EEDB6620AB493C
:1055C00048730846007C20F03800383008740846DC
:1055D000007C20F00700801C08740846B0F8110019
:1055E00067F38E10A1F81100498A4F9860F3CF112C
:1055F0009E4841829D49B1F81510529860F38C0184
:105600009A48A0F815104FF43471C08A61F34F1016
:105610009649C8820846808A66F30900888208464F
:10562000008A20F47070403008820846407C68F39D
:1056300085004874002405E000218C482030015585
:10564000601CC4B21E2CF7DB31A9884820300BF057
:1056500072FFA520854908703720A1F801000020BD
:10566000C87008460168C9F80010007989F804007C
:1056700005214846FBF7DAFE40F201307B49A1F8EC
:1056800005004FF48870A1F80700009881B27748B0
:10569000A0F80910A0F80B503922411D09F10500AE
:1056A000FAF77CFE40214846FBF7A8FE40205490C4
:1056B00067206E4948730846007C20F03800383077
:1056C00008740846007C20F00700801C0874084617
:1056D000B0F8110067F38E10A1F81100498A4E98B6
:1056E00060F3CF11614841826049B1F815105298BA
:1056F00060F38C015D48A0F8151040F29E21C08A2D
:1057000061F34F105949C8820846808A66F3090040
:1057100088820846008A20F470704030088208466B
:10572000407C68F385004874002405E000214F4860
:1057300020300155601CC4B21E2CF7DB29A94B4850
:1057400020300BF0F8FEA520484908703720A1F85A
:1057500001000020C87008460168CAF800100079EE
:105760008AF8040005215046FBF760FE40F2013044
:105770003E49A1F805004FF48870A1F80700009891
:1057800081B23A48A0F80910A0F80B503922411D07
:105790000AF10500FAF702FE40215046FBF72EFE03
:1057A0004020539000240DE019F80410304807F011
:1057B0005AF800BF40212E4806F08AFF0028F9D091
:1057C000601CC4B254988442EEDB00240DE01AF849
:1057D0000410274807F047F800BF4021244806F08E
:1057E00077FF0028F9D0601CC4B253988442EEDBE6
:1057F0006A201E4948730846007C20F03800383083
:1058000008740846007C20F00700801C08740846D5
:10581000B0F8110067F38E10A1F81100498A4D9875
:1058200060F3CF11114841821049B1F81510519819
:1058300060F38C010D48A0F815104FF42A71C08A4E
:1058400061F34F100949C8820846808A66F309004F
:1058500088820846008A20F470704030088208462A
:10586000407C68F385004874002408E0020E0220A2
:10587000004800400021FB480155601CC4B21E2CAA
:10588000F8DB21A9F7480BF056FEA520F549203991
:1058900008703720A1F801000020C8700846016890
:1058A000C9F80010007989F8040005214846FBF783
:1058B000BDFD40F20130EB492039A1F805004FF45D
:1058C0008870A1F80700009881B2E6482038A0F857
:1058D0000910A0F80B503922411D09F10500FAF713
:1058E0005DFD40214846FBF789FD402054906B2028
:1058F000DC49203948730846007C20F038003830F5
:1059000008740846007C20F00700801C08740846D4
:10591000B0F8110067F38E10A1F81100498A4C9875
:1059200060F3CF11CF4820384182CE492039B1F8F9
:105930001510519860F38C01CA482038A0F8151052
:1059400040F27621C08A61F34F10C6492039C882DF
:105950000846808A66F3090088820846008A20F497
:105960007070403008820846407C68F385004874B7
:10597000002404E00021BB480155601CC4B21E2C69
:10598000F8DB19A9B7480BF0D6FDA520B549203999
:1059900008703720A1F801000020C870084601688F
:1059A000CAF8001000798AF8040005215046FBF778
:1059B0003DFD40F20130AB492039A1F805004FF41C
:1059C0008870A1F80700009881B2A6482038A0F896
:1059D0000910A0F80B503922411D0AF10500FAF711
:1059E000DDFC40215046FBF709FD40205390002488
:1059F0000DE019F804109C4806F035FF00BF402167
:105A0000994806F065FE0028F9D0601CC4B254988D
:105A10008442EEDB00240DE01AF80410924806F0F0
:105A200022FF00BF4021904806F052FE0028F9D026
:105A3000601CC4B253988442EEDB6C208949203943
:105A400048730846007C20F0380038300874084657
:105A5000007C20F00700801C08740846B0F8110094
:105A600067F38E10A1F81100498A4B9860F3CF11AB
:105A70007C48203841827B492039B1F81510519873
:105A800060F38C0177482038A0F815104FF411719D
:105A9000C08A61F34F1073492039C8820846808A52
:105AA00066F3090088820846008A20F4707040304E
:105AB00008820846407C68F385004874002404E0AE
:105AC000002168480155601CC4B21E2CF8DB11A9E6
:105AD00064480BF030FDA52062492039087037205A
